{
  "contractName": "Libreria",
  "abi": [
    {
      "anonymous": false,
      "inputs": [
        {
          "indexed": false,
          "internalType": "string",
          "name": "nombre",
          "type": "string"
        },
        {
          "indexed": false,
          "internalType": "string",
          "name": "titulo",
          "type": "string"
        },
        {
          "indexed": false,
          "internalType": "string",
          "name": "date",
          "type": "string"
        },
        {
          "indexed": false,
          "internalType": "address",
          "name": "account",
          "type": "address"
        }
      ],
      "name": "ReservarLibro",
      "type": "event"
    },
    {
      "constant": true,
      "inputs": [
        {
          "internalType": "string",
          "name": "",
          "type": "string"
        }
      ],
      "name": "libros",
      "outputs": [
        {
          "internalType": "uint256",
          "name": "id",
          "type": "uint256"
        },
        {
          "internalType": "string",
          "name": "titulo",
          "type": "string"
        },
        {
          "internalType": "string",
          "name": "autor",
          "type": "string"
        },
        {
          "internalType": "string",
          "name": "editorial",
          "type": "string"
        }
      ],
      "payable": false,
      "stateMutability": "view",
      "type": "function"
    },
    {
      "constant": false,
      "inputs": [
        {
          "internalType": "string",
          "name": "titulo",
          "type": "string"
        },
        {
          "internalType": "string",
          "name": "autor",
          "type": "string"
        },
        {
          "internalType": "string",
          "name": "editorial",
          "type": "string"
        }
      ],
      "name": "addLibro",
      "outputs": [
        {
          "internalType": "uint256",
          "name": "",
          "type": "uint256"
        },
        {
          "internalType": "string",
          "name": "",
          "type": "string"
        },
        {
          "internalType": "string",
          "name": "",
          "type": "string"
        },
        {
          "internalType": "string",
          "name": "",
          "type": "string"
        }
      ],
      "payable": false,
      "stateMutability": "nonpayable",
      "type": "function"
    },
    {
      "constant": true,
      "inputs": [
        {
          "internalType": "uint256",
          "name": "id",
          "type": "uint256"
        }
      ],
      "name": "getLibro",
      "outputs": [
        {
          "internalType": "string",
          "name": "titulo",
          "type": "string"
        },
        {
          "internalType": "string",
          "name": "autor",
          "type": "string"
        },
        {
          "internalType": "string",
          "name": "editorial",
          "type": "string"
        }
      ],
      "payable": false,
      "stateMutability": "view",
      "type": "function"
    },
    {
      "constant": true,
      "inputs": [],
      "name": "contLibros",
      "outputs": [
        {
          "internalType": "uint256",
          "name": "",
          "type": "uint256"
        }
      ],
      "payable": false,
      "stateMutability": "view",
      "type": "function"
    },
    {
      "constant": false,
      "inputs": [
        {
          "internalType": "string",
          "name": "title",
          "type": "string"
        },
        {
          "internalType": "string",
          "name": "nombre",
          "type": "string"
        },
        {
          "internalType": "string",
          "name": "date",
          "type": "string"
        }
      ],
      "name": "reservar",
      "outputs": [],
      "payable": false,
      "stateMutability": "nonpayable",
      "type": "function"
    }
  ],
  "bytecode": "0x608060405234801561001057600080fd5b506112ec806100206000396000f3fe608060405234801561001057600080fd5b50600436106100575760003560e01c8063192884941461005c578063619d61701461039d5780636996df40146105b05780638c71c2cf1461072f578063dbd25eba1461074d575b600080fd5b6102436004803603606081101561007257600080fd5b810190808035906020019064010000000081111561008f57600080fd5b8201836020820111156100a157600080fd5b803590602001918460018302840111640100000000831117156100c357600080fd5b91908080601f016020809104026020016040519081016040528093929190818152602001838380828437600081840152601f19601f8201169050808301925050505050505091929192908035906020019064010000000081111561012657600080fd5b82018360208201111561013857600080fd5b8035906020019184600183028401116401000000008311171561015a57600080fd5b91908080601f016020809104026020016040519081016040528093929190818152602001838380828437600081840152601f19601f820116905080830192505050505050509192919290803590602001906401000000008111156101bd57600080fd5b8201836020820111156101cf57600080fd5b803590602001918460018302840111640100000000831117156101f157600080fd5b91908080601f016020809104026020016040519081016040528093929190818152602001838380828437600081840152601f19601f820116905080830192505050505050509192919290505050610936565b60405180858152602001806020018060200180602001848103845287818151815260200191508051906020019080838360005b83811015610291578082015181840152602081019050610276565b50505050905090810190601f1680156102be5780820380516001836020036101000a031916815260200191505b50848103835286818151815260200191508051906020019080838360005b838110156102f75780820151818401526020810190506102dc565b50505050905090810190601f1680156103245780820380516001836020036101000a031916815260200191505b50848103825285818151815260200191508051906020019080838360005b8381101561035d578082015181840152602081019050610342565b50505050905090810190601f16801561038a5780820380516001836020036101000a031916815260200191505b5097505050505050505060405180910390f35b610456600480360360208110156103b357600080fd5b81019080803590602001906401000000008111156103d057600080fd5b8201836020820111156103e257600080fd5b8035906020019184600183028401116401000000008311171561040457600080fd5b91908080601f016020809104026020016040519081016040528093929190818152602001838380828437600081840152601f19601f820116905080830192505050505050509192919290505050610a98565b60405180858152602001806020018060200180602001848103845287818151815260200191508051906020019080838360005b838110156104a4578082015181840152602081019050610489565b50505050905090810190601f1680156104d15780820380516001836020036101000a031916815260200191505b50848103835286818151815260200191508051906020019080838360005b8381101561050a5780820151818401526020810190506104ef565b50505050905090810190601f1680156105375780820380516001836020036101000a031916815260200191505b50848103825285818151815260200191508051906020019080838360005b83811015610570578082015181840152602081019050610555565b50505050905090810190601f16801561059d5780820380516001836020036101000a031916815260200191505b5097505050505050505060405180910390f35b6105dc600480360360208110156105c657600080fd5b8101908080359060200190929190505050610ca6565b60405180806020018060200180602001848103845287818151815260200191508051906020019080838360005b83811015610624578082015181840152602081019050610609565b50505050905090810190601f1680156106515780820380516001836020036101000a031916815260200191505b50848103835286818151815260200191508051906020019080838360005b8381101561068a57808201518184015260208101905061066f565b50505050905090810190601f1680156106b75780820380516001836020036101000a031916815260200191505b50848103825285818151815260200191508051906020019080838360005b838110156106f05780820151818401526020810190506106d5565b50505050905090810190601f16801561071d5780820380516001836020036101000a031916815260200191505b50965050505050505060405180910390f35b610737610fae565b6040518082815260200191505060405180910390f35b6109346004803603606081101561076357600080fd5b810190808035906020019064010000000081111561078057600080fd5b82018360208201111561079257600080fd5b803590602001918460018302840111640100000000831117156107b457600080fd5b91908080601f016020809104026020016040519081016040528093929190818152602001838380828437600081840152601f19601f8201169050808301925050505050505091929192908035906020019064010000000081111561081757600080fd5b82018360208201111561082957600080fd5b8035906020019184600183028401116401000000008311171561084b57600080fd5b91908080601f016020809104026020016040519081016040528093929190818152602001838380828437600081840152601f19601f820116905080830192505050505050509192919290803590602001906401000000008111156108ae57600080fd5b8201836020820111156108c057600080fd5b803590602001918460018302840111640100000000831117156108e257600080fd5b91908080601f016020809104026020016040519081016040528093929190818152602001838380828437600081840152601f19601f820116905080830192505050505050509192919290505050610fbb565b005b60006060806060600187908060018154018082558091505090600182039060005260206000200160009091929091909150908051906020019061097a92919061116a565b50506000600180805490500390506109906111ea565b60405180608001604052808381526020018a81526020018981526020018881525090508060008a6040518082805190602001908083835b602083106109ea57805182526020820191506020810190506020830392506109c7565b6001836020036101000a0380198251168184511680821785525050505050509050019150509081526020016040518091039020600082015181600001556020820151816001019080519060200190610a43929190611212565b506040820151816002019080519060200190610a60929190611212565b506060820151816003019080519060200190610a7d929190611212565b50905050818989899550955095509550505093509350935093565b600081805160208101820180518482526020830160208501208183528095505050505050600091509050806000015490806001018054600181600116156101000203166002900480601f016020809104026020016040519081016040528092919081815260200182805460018160011615610100020316600290048015610b605780601f10610b3557610100808354040283529160200191610b60565b820191906000526020600020905b815481529060010190602001808311610b4357829003601f168201915b505050505090806002018054600181600116156101000203166002900480601f016020809104026020016040519081016040528092919081815260200182805460018160011615610100020316600290048015610bfe5780601f10610bd357610100808354040283529160200191610bfe565b820191906000526020600020905b815481529060010190602001808311610be157829003601f168201915b505050505090806003018054600181600116156101000203166002900480601f016020809104026020016040519081016040528092919081815260200182805460018160011615610100020316600290048015610c9c5780601f10610c7157610100808354040283529160200191610c9c565b820191906000526020600020905b815481529060010190602001808311610c7f57829003601f168201915b5050505050905084565b606080606060018481548110610cb857fe5b906000526020600020018054600181600116156101000203166002900480601f016020809104026020016040519081016040528092919081815260200182805460018160011615610100020316600290048015610d565780601f10610d2b57610100808354040283529160200191610d56565b820191906000526020600020905b815481529060010190602001808311610d3957829003601f168201915b50505050509250600060018581548110610d6c57fe5b906000526020600020016040518082805460018160011615610100020316600290048015610dd15780601f10610daf576101008083540402835291820191610dd1565b820191906000526020600020905b815481529060010190602001808311610dbd575b505091505090815260200160405180910390206002018054600181600116156101000203166002900480601f016020809104026020016040519081016040528092919081815260200182805460018160011615610100020316600290048015610e7b5780601f10610e5057610100808354040283529160200191610e7b565b820191906000526020600020905b815481529060010190602001808311610e5e57829003601f168201915b50505050509150600060018581548110610e9157fe5b906000526020600020016040518082805460018160011615610100020316600290048015610ef65780601f10610ed4576101008083540402835291820191610ef6565b820191906000526020600020905b815481529060010190602001808311610ee2575b505091505090815260200160405180910390206003018054600181600116156101000203166002900480601f016020809104026020016040519081016040528092919081815260200182805460018160011615610100020316600290048015610fa05780601f10610f7557610100808354040283529160200191610fa0565b820191906000526020600020905b815481529060010190602001808311610f8357829003601f168201915b505050505090509193909250565b6000600180549050905090565b7f9a4c78f2f495e201696c55025c01c4a798a2ca5e257e594f0c9f229599367b6f82848333604051808060200180602001806020018573ffffffffffffffffffffffffffffffffffffffff1673ffffffffffffffffffffffffffffffffffffffff168152602001848103845288818151815260200191508051906020019080838360005b8381101561105a57808201518184015260208101905061103f565b50505050905090810190601f1680156110875780820380516001836020036101000a031916815260200191505b50848103835287818151815260200191508051906020019080838360005b838110156110c05780820151818401526020810190506110a5565b50505050905090810190601f1680156110ed5780820380516001836020036101000a031916815260200191505b50848103825286818151815260200191508051906020019080838360005b8381101561112657808201518184015260208101905061110b565b50505050905090810190601f1680156111535780820380516001836020036101000a031916815260200191505b5097505050505050505060405180910390a1505050565b828054600181600116156101000203166002900490600052602060002090601f016020900481019282601f106111ab57805160ff19168380011785556111d9565b828001600101855582156111d9579182015b828111156111d85782518255916020019190600101906111bd565b5b5090506111e69190611292565b5090565b6040518060800160405280600081526020016060815260200160608152602001606081525090565b828054600181600116156101000203166002900490600052602060002090601f016020900481019282601f1061125357805160ff1916838001178555611281565b82800160010185558215611281579182015b82811115611280578251825591602001919060010190611265565b5b50905061128e9190611292565b5090565b6112b491905b808211156112b0576000816000905550600101611298565b5090565b9056fea265627a7a72315820ebcd2af3413c34ec8b319d664d40e32f1285d1509846fad569912b7f1f60d92b64736f6c63430005100032",
  "source": "pragma solidity >=0.4.22 <0.8.0;\n\ncontract Libreria {\n\n    struct Libro {\n        uint256 id;\n        string titulo;\n        string autor;\n        string editorial; \n    }\n\n    mapping(string => Libro) public libros; // Titulo => Libro\n    string[] lista_titulos; \n\n    event ReservarLibro(string nombre, string titulo, string date, address account);\n\n    //========================================\n    //             AÑADIR LIBRO\n    //========================================\n    function addLibro(string memory titulo, string memory autor, string memory editorial) public returns (\n        uint256, string memory, string memory, string memory ){\n        \n        // Añadir al array\n        lista_titulos.push(titulo);\n        uint256 id = lista_titulos.length - 1;\n\n        // Crear el libro\n        Libro memory new_libro = Libro(id, titulo, autor, editorial);\n        \n        // Añadir al mapping\n        libros[titulo] = new_libro;\n\n        return (id, titulo, autor, editorial);\n    }\n\n    //========================================\n    //         OBTENER INFO DE UN LIBRO\n    //========================================\n    function getLibro(uint256 id) public view returns \n        (string memory titulo, string memory autor, string memory editorial){\n        \n        titulo = lista_titulos[id];\n        autor = libros[lista_titulos[id]].autor;\n        editorial = libros[lista_titulos[id]].editorial;\n    }\n\n    //========================================\n    //        NUMERO TOTAL DE LIBROS\n    //========================================\n    function contLibros() public view returns (uint256){\n        return lista_titulos.length;\n    }\n\n    //========================================\n    //            RESERVAR LIBRO\n    //========================================\n    function reservar(string memory title, string memory nombre, string memory date) public {\n        emit ReservarLibro(nombre, title, date, msg.sender);\n    }\n\n}",
  "sourcePath": "/home/pau/Documentos/misMierdas/Charla_Blockchain/smartContracts/contracts/Libreria.sol",
  "compiler": {
    "name": "solc",
    "version": "0.5.16+commit.9c3226ce.Emscripten.clang"
  },
  "schemaVersion": "3.2.5",
  "updatedAt": "2021-03-04T09:54:32.079Z",
  "devdoc": {
    "methods": {}
  },
  "userdoc": {
    "methods": {}
  }
}