{
  "contractName": "Library",
  "abi": [
    {
      "anonymous": false,
      "inputs": [
        {
          "indexed": false,
          "internalType": "string",
          "name": "user",
          "type": "string"
        },
        {
          "indexed": false,
          "internalType": "string",
          "name": "title",
          "type": "string"
        },
        {
          "indexed": false,
          "internalType": "string",
          "name": "date",
          "type": "string"
        },
        {
          "indexed": false,
          "internalType": "address",
          "name": "account",
          "type": "address"
        }
      ],
      "name": "BookReserve",
      "type": "event"
    },
    {
      "constant": true,
      "inputs": [
        {
          "internalType": "string",
          "name": "",
          "type": "string"
        }
      ],
      "name": "books",
      "outputs": [
        {
          "internalType": "uint256",
          "name": "id",
          "type": "uint256"
        },
        {
          "internalType": "string",
          "name": "title",
          "type": "string"
        },
        {
          "internalType": "string",
          "name": "author",
          "type": "string"
        },
        {
          "internalType": "string",
          "name": "editorial",
          "type": "string"
        }
      ],
      "payable": false,
      "stateMutability": "view",
      "type": "function"
    },
    {
      "constant": false,
      "inputs": [
        {
          "internalType": "string",
          "name": "title",
          "type": "string"
        },
        {
          "internalType": "string",
          "name": "author",
          "type": "string"
        },
        {
          "internalType": "string",
          "name": "editorial",
          "type": "string"
        }
      ],
      "name": "addBook",
      "outputs": [],
      "payable": false,
      "stateMutability": "nonpayable",
      "type": "function"
    },
    {
      "constant": true,
      "inputs": [
        {
          "internalType": "uint256",
          "name": "id",
          "type": "uint256"
        }
      ],
      "name": "getBook",
      "outputs": [
        {
          "internalType": "string",
          "name": "title",
          "type": "string"
        },
        {
          "internalType": "string",
          "name": "author",
          "type": "string"
        },
        {
          "internalType": "string",
          "name": "editorial",
          "type": "string"
        }
      ],
      "payable": false,
      "stateMutability": "view",
      "type": "function"
    },
    {
      "constant": true,
      "inputs": [],
      "name": "numberBooks",
      "outputs": [
        {
          "internalType": "uint256",
          "name": "",
          "type": "uint256"
        }
      ],
      "payable": false,
      "stateMutability": "view",
      "type": "function"
    },
    {
      "constant": false,
      "inputs": [
        {
          "internalType": "string",
          "name": "user",
          "type": "string"
        },
        {
          "internalType": "string",
          "name": "title",
          "type": "string"
        },
        {
          "internalType": "string",
          "name": "date",
          "type": "string"
        }
      ],
      "name": "reserveBook",
      "outputs": [],
      "payable": false,
      "stateMutability": "nonpayable",
      "type": "function"
    }
  ],
  "bytecode": "0x608060405234801561001057600080fd5b5061117d806100206000396000f3fe608060405234801561001057600080fd5b50600436106100575760003560e01c80631625507e1461005c5780632b9dfe801461007a57806369c468261461028d578063b021600314610476578063e0ff5b8b1461065f575b600080fd5b6100646107de565b6040518082815260200191505060405180910390f35b6101336004803603602081101561009057600080fd5b81019080803590602001906401000000008111156100ad57600080fd5b8201836020820111156100bf57600080fd5b803590602001918460018302840111640100000000831117156100e157600080fd5b91908080601f016020809104026020016040519081016040528093929190818152602001838380828437600081840152601f19601f8201169050808301925050505050505091929192905050506107eb565b60405180858152602001806020018060200180602001848103845287818151815260200191508051906020019080838360005b83811015610181578082015181840152602081019050610166565b50505050905090810190601f1680156101ae5780820380516001836020036101000a031916815260200191505b50848103835286818151815260200191508051906020019080838360005b838110156101e75780820151818401526020810190506101cc565b50505050905090810190601f1680156102145780820380516001836020036101000a031916815260200191505b50848103825285818151815260200191508051906020019080838360005b8381101561024d578082015181840152602081019050610232565b50505050905090810190601f16801561027a5780820380516001836020036101000a031916815260200191505b5097505050505050505060405180910390f35b610474600480360360608110156102a357600080fd5b81019080803590602001906401000000008111156102c057600080fd5b8201836020820111156102d257600080fd5b803590602001918460018302840111640100000000831117156102f457600080fd5b91908080601f016020809104026020016040519081016040528093929190818152602001838380828437600081840152601f19601f8201169050808301925050505050505091929192908035906020019064010000000081111561035757600080fd5b82018360208201111561036957600080fd5b8035906020019184600183028401116401000000008311171561038b57600080fd5b91908080601f016020809104026020016040519081016040528093929190818152602001838380828437600081840152601f19601f820116905080830192505050505050509192919290803590602001906401000000008111156103ee57600080fd5b82018360208201111561040057600080fd5b8035906020019184600183028401116401000000008311171561042257600080fd5b91908080601f016020809104026020016040519081016040528093929190818152602001838380828437600081840152601f19601f8201169050808301925050505050505091929192905050506109f9565b005b61065d6004803603606081101561048c57600080fd5b81019080803590602001906401000000008111156104a957600080fd5b8201836020820111156104bb57600080fd5b803590602001918460018302840111640100000000831117156104dd57600080fd5b91908080601f016020809104026020016040519081016040528093929190818152602001838380828437600081840152601f19601f8201169050808301925050505050505091929192908035906020019064010000000081111561054057600080fd5b82018360208201111561055257600080fd5b8035906020019184600183028401116401000000008311171561057457600080fd5b91908080601f016020809104026020016040519081016040528093929190818152602001838380828437600081840152601f19601f820116905080830192505050505050509192919290803590602001906401000000008111156105d757600080fd5b8201836020820111156105e957600080fd5b8035906020019184600183028401116401000000008311171561060b57600080fd5b91908080601f016020809104026020016040519081016040528093929190818152602001838380828437600081840152601f19601f820116905080830192505050505050509192919290505050610b44565b005b61068b6004803603602081101561067557600080fd5b8101908080359060200190929190505050610cf3565b60405180806020018060200180602001848103845287818151815260200191508051906020019080838360005b838110156106d35780820151818401526020810190506106b8565b50505050905090810190601f1680156107005780820380516001836020036101000a031916815260200191505b50848103835286818151815260200191508051906020019080838360005b8381101561073957808201518184015260208101905061071e565b50505050905090810190601f1680156107665780820380516001836020036101000a031916815260200191505b50848103825285818151815260200191508051906020019080838360005b8381101561079f578082015181840152602081019050610784565b50505050905090810190601f1680156107cc5780820380516001836020036101000a031916815260200191505b50965050505050505060405180910390f35b6000600180549050905090565b600081805160208101820180518482526020830160208501208183528095505050505050600091509050806000015490806001018054600181600116156101000203166002900480601f0160208091040260200160405190810160405280929190818152602001828054600181600116156101000203166002900480156108b35780601f10610888576101008083540402835291602001916108b3565b820191906000526020600020905b81548152906001019060200180831161089657829003601f168201915b505050505090806002018054600181600116156101000203166002900480601f0160208091040260200160405190810160405280929190818152602001828054600181600116156101000203166002900480156109515780601f1061092657610100808354040283529160200191610951565b820191906000526020600020905b81548152906001019060200180831161093457829003601f168201915b505050505090806003018054600181600116156101000203166002900480601f0160208091040260200160405190810160405280929190818152602001828054600181600116156101000203166002900480156109ef5780601f106109c4576101008083540402835291602001916109ef565b820191906000526020600020905b8154815290600101906020018083116109d257829003601f168201915b5050505050905084565b6001839080600181540180825580915050906001820390600052602060002001600090919290919091509080519060200190610a36929190610ffb565b5050600060018080549050039050610a4c61107b565b6040518060800160405280838152602001868152602001858152602001848152509050806000866040518082805190602001908083835b60208310610aa65780518252602082019150602081019050602083039250610a83565b6001836020036101000a0380198251168184511680821785525050505050509050019150509081526020016040518091039020600082015181600001556020820151816001019080519060200190610aff9291906110a3565b506040820151816002019080519060200190610b1c9291906110a3565b506060820151816003019080519060200190610b399291906110a3565b509050505050505050565b7f46aa9a219c6de0f7fca6a2dbdfce09cafe2a240d9399d7a1e6d4b7c426aeb59383838333604051808060200180602001806020018573ffffffffffffffffffffffffffffffffffffffff1673ffffffffffffffffffffffffffffffffffffffff168152602001848103845288818151815260200191508051906020019080838360005b83811015610be3578082015181840152602081019050610bc8565b50505050905090810190601f168015610c105780820380516001836020036101000a031916815260200191505b50848103835287818151815260200191508051906020019080838360005b83811015610c49578082015181840152602081019050610c2e565b50505050905090810190601f168015610c765780820380516001836020036101000a031916815260200191505b50848103825286818151815260200191508051906020019080838360005b83811015610caf578082015181840152602081019050610c94565b50505050905090810190601f168015610cdc5780820380516001836020036101000a031916815260200191505b5097505050505050505060405180910390a1505050565b606080606060018481548110610d0557fe5b906000526020600020018054600181600116156101000203166002900480601f016020809104026020016040519081016040528092919081815260200182805460018160011615610100020316600290048015610da35780601f10610d7857610100808354040283529160200191610da3565b820191906000526020600020905b815481529060010190602001808311610d8657829003601f168201915b50505050509250600060018581548110610db957fe5b906000526020600020016040518082805460018160011615610100020316600290048015610e1e5780601f10610dfc576101008083540402835291820191610e1e565b820191906000526020600020905b815481529060010190602001808311610e0a575b505091505090815260200160405180910390206002018054600181600116156101000203166002900480601f016020809104026020016040519081016040528092919081815260200182805460018160011615610100020316600290048015610ec85780601f10610e9d57610100808354040283529160200191610ec8565b820191906000526020600020905b815481529060010190602001808311610eab57829003601f168201915b50505050509150600060018581548110610ede57fe5b906000526020600020016040518082805460018160011615610100020316600290048015610f435780601f10610f21576101008083540402835291820191610f43565b820191906000526020600020905b815481529060010190602001808311610f2f575b505091505090815260200160405180910390206003018054600181600116156101000203166002900480601f016020809104026020016040519081016040528092919081815260200182805460018160011615610100020316600290048015610fed5780601f10610fc257610100808354040283529160200191610fed565b820191906000526020600020905b815481529060010190602001808311610fd057829003601f168201915b505050505090509193909250565b828054600181600116156101000203166002900490600052602060002090601f016020900481019282601f1061103c57805160ff191683800117855561106a565b8280016001018555821561106a579182015b8281111561106957825182559160200191906001019061104e565b5b5090506110779190611123565b5090565b6040518060800160405280600081526020016060815260200160608152602001606081525090565b828054600181600116156101000203166002900490600052602060002090601f016020900481019282601f106110e457805160ff1916838001178555611112565b82800160010185558215611112579182015b828111156111115782518255916020019190600101906110f6565b5b50905061111f9190611123565b5090565b61114591905b80821115611141576000816000905550600101611129565b5090565b9056fea265627a7a723158209e753ae6dcabf517f8f77afb32da4ab7ec08b29653bf301a203abab5cb2800fd64736f6c63430005100032",
  "source": "pragma solidity >=0.4.22 <0.8.0;\n\ncontract Library {\n\n    struct Book {\n        uint256 id;\n        string title;\n        string author;\n        string editorial; \n    }\n\n    mapping(string => Book) public books; // Titulo => Libro\n    string[] list_titles; \n\n    event BookReserve(string user, string title, string date, address account);\n\n    //========================================\n    //             AÑADIR LIBRO\n    //========================================\n    function addBook(string memory title, string memory author, string memory editorial) public {\n        \n        // Añadir al array\n        list_titles.push(title);\n        uint256 id = list_titles.length - 1;\n\n        // Crear el libro\n        Book memory new_book = Book(id, title, author, editorial);\n        \n        // Añadir al mapping\n        books[title] = new_book;\n    }\n\n    //========================================\n    //         OBTENER INFO DE UN LIBRO\n    //========================================\n    function getBook(uint256 id) public view returns \n        (string memory title, string memory author, string memory editorial){\n        \n        title = list_titles[id];\n        author = books[list_titles[id]].author;\n        editorial = books[list_titles[id]].editorial;\n    }\n\n    //========================================\n    //        NUMERO TOTAL DE LIBROS\n    //========================================\n    function numberBooks() public view returns (uint256){\n        return list_titles.length;\n    }\n\n    //========================================\n    //            RESERVAR LIBRO\n    //========================================\n    function reserveBook(string memory user, string memory title, string memory date) public {\n        emit BookReserve(user, title, date, msg.sender);\n    }\n\n}",
  "sourcePath": "/home/pau/Documentos/misMierdas/Charla_Blockchain/smartContracts/contracts/Library.sol",
  "compiler": {
    "name": "solc",
    "version": "0.5.16+commit.9c3226ce.Emscripten.clang"
  },
  "schemaVersion": "3.2.5",
  "updatedAt": "2021-03-04T11:37:44.835Z",
  "devdoc": {
    "methods": {}
  },
  "userdoc": {
    "methods": {}
  }
}